:020000040000FA
:100000000C9463000C948B000C948B000C944605AC
:100010000C9446050C9446050C948B000C948B00B4
:100020000C948B000C948B000C948B000C948B0024
:100030000C948B000C948B000C948B000C948B0014
:100040000C94FC040C948B000C948B000C948B008F
:100050000C948B000C948B000C948B000C948B00F4
:100060000C94BE050C948B000000000024002700B7
:100070002A0000000008000201000003040700003D
:1000800000000000000000000000230026002900FE
:1000900000000000250028002B00040404040404D0
:1000A0000404020202020202030303030303010227
:1000B00004081020408001020408102001020408F6
:1000C0001020DD06970A11241FBECFEFD8E0DEBF57
:1000D000CDBF23E0A8EDB1E001C01D92AA31B20767
:1000E000E1F711E0A0E0B1E0E2E7FAE102C005903B
:1000F0000D92A83DB107D9F710E0C2E6D0E004C0E8
:100100002197FE010E94340BC136D107C9F70E9426
:1001100071070C942C0D0C94000008950895AF9273
:10012000BF92CF92DF92EF92FF920F931F93CF93E4
:10013000DF936C017B018B01040F151FEB015E0146
:10014000AE18BF08C017D10759F06991D601ED91DB
:10015000FC910190F081E02DC6010995892B79F77A
:10016000C501DF91CF911F910F91FF90EF90DF902C
:10017000CF90BF90AF90089590E0FC01EE58FF4FF4
:100180002491FC01E255FF4F3491FC01E656FF4FEC
:10019000E491EE23C9F0222339F0233001F1A8F4D1
:1001A000213019F1223029F1F0E0EE0FFF1FE05766
:1001B000FF4FA591B4918FB7F894EC91611126C0CF
:1001C00030953E233C938FBF08952730A9F0283007
:1001D000C9F0243049F7809180008F7D03C0809161
:1001E00080008F7780938000DFCF84B58F7784BDC8
:1001F000DBCF84B58F7DFBCF8091B0008F7780936C
:10020000B000D2CF8091B0008F7DF9CF3E2BDACFF6
:10021000CF93DF9390E0FC01E255FF4F2491865687
:100220009F4FFC0184918823D1F090E0880F991FA3
:10023000FC01E859FF4FA591B491FC01E057FF4F35
:10024000C591D49161110EC09FB7F8948C91E22FA3
:10025000E0958E238C932881E223E8839FBFDF9172
:10026000CF9108958FB7F894EC91E22BEC938FBF68
:10027000F6CF3FB7F8948091CF029091D002A09131
:10028000D102B091D20226B5A89B05C02F3F19F02C
:100290000196A11DB11D3FBFBA2FA92F982F882706
:1002A000BC01CD01620F711D811D911D42E0660FE1
:1002B000771F881F991F4A95D1F708958F929F92B3
:1002C000AF92BF92CF92DF92EF92FF924B015C010F
:1002D0000E9439016B017C010E9439016C197D0972
:1002E0008E099F09683E734081059105A8F321E0BE
:1002F000821A9108A108B10888EEC80E83E0D81EC2
:10030000E11CF11C81149104A104B10429F7FF90B0
:10031000EF90DF90CF90BF90AF909F908F90089517
:100320002091DD023091DE022817390771F4909197
:10033000DB028091DC02981741F0E091DB02F0E0F3
:10034000E657FD4F808190E008958FEF9FEF08956D
:100350000895EF92FF920F931F93CF93DF93DC01E9
:100360005C96ED90FC905D97E114F10479F481E0E6
:1003700090E013969C938E93129790E080E0DF912B
:10038000CF911F910F91FF90EF9008955196ED91AD
:10039000FC91529750968C915097982F90950FB74B
:1003A0005E962C915E97122F127021FD6095F89445
:1003B0002081112319F1282B2083E7012197F1F7E0
:1003C00028E0462F50E0308160FF1AC0382B308380
:1003D000E7012197F1F7BA0175956795215089F7E3
:1003E000112381F08081892380830FBF5C968D91DA
:1003F0009C910197F1F781E090E0C1CF2923DCCFF8
:100400003923E5CF9081892BEFCF2091DD02309108
:10041000DE022817390771F48091DC022091DB029B
:1004200090E0805C9F4F821B910960E470E00E9425
:10043000EA0A089590E080E008952091DD0230916D
:10044000DE0228173907B9F49091DB028091DC02B3
:10045000981789F0E091DB02F0E0E657FD4F8081CC
:100460002091DB0230E02F5F3F4F2F733327209323
:10047000DB0290E008958FEF9FEF0895089520919B
:100480001902260F3327331F21323105ECF4209156
:100490006202FC0190E080E0243069F082E008957F
:1004A000A09119022191AC0147505E4FA40FB52FC6
:1004B000B11D2C930196861798F380911902680F4D
:1004C0006093190280E0089581E00895109262021D
:1004D00081E08093610210923C0261E082E10E941F
:1004E000BC0061E083E10E94BC00E9EBF0E08081A8
:1004F0008E7F808380818D7F808388E48093B800A5
:1005000085E48093BC000895CF93DF9391E09093AE
:10051000F8018823B9F0C091B800D091BA00809159
:10052000BC008A7B8093BC0060E082E10E94BC003A
:1005300060E083E10E94BC000E946602D093BA0092
:10054000C093B800DF91CF910895E091DA028091D5
:10055000D902E81730F4F0E0E852FE4F808190E0D5
:1005600008958FEF9FEF08959091DA028091D9025C
:100570002FEF3FEF981748F4E92FF0E0E852FE4FD5
:10058000208130E09F5F9093DA02C9010895809145
:10059000D9029091DA02891B990B0895CF92DF92CC
:1005A000EF92FF920F931F93CF93DF937C01CB01C8
:1005B0008A0120916802222389F0EB016B01C40EAD
:1005C000D51ECC15DD0569F06991D701ED91FC913F
:1005D0000190F081E02DC7010995F3CF642F0E94AF
:1005E0003F02C801DF91CF911F910F91FF90EF90D3
:1005F000DF90CF900895CF93DF931F92CDB7DEB7F2
:100600006983209168022223F9F02091D7022032D9
:1006100058F021E030E0FC013383228390E080E059
:100620000F90DF91CF9108958091D802E82FF0E0EC
:10063000E759FD4F998190838F5F8093D802809313
:10064000D70281E090E0ECCF61E0CE0101960E94FC
:100650003F02F7CFCF92DF92EF92FF920F931F935B
:10066000CF93DF93FC01C48121E020936802C09303
:1006700089021092D8021092D7028385682B8FEDE1
:1006800092E00E94FB02D091D702D13208F092C0D2
:100690000E9439016B017C0180916202811165C069
:1006A00082E08093620281E0809361028FEF809309
:1006B000600210925F02D0935E02A9E6B2E0EEE320
:1006C000F2E080E0D81385C010923D0280913D0297
:1006D000CC0FC82BC0933D0280913C02813009F0C1
:1006E0007CC010923C020E9439016B017C01809118
:1006F0003D028093BB008091640290916502A091BD
:100700006602B0916702892B8A2B8B2B99F00E948D
:1007100039010091640210916502209166023091C6
:1007200067026C197D098E099F09061717072807AC
:100730003907E0F18091BC0083FDD9CF85EC80932F
:10074000BC000E9439016B017C0180916202823001
:1007500009F445C0809160028F3F61F18091600291
:10076000803241F18091600225C0809164029091B5
:100770006502A0916602B0916702892B8A2B8B2BB0
:1007800009F48ACF0E943901009164021091650238
:1007900020916602309167026C197D098E099F09CC
:1007A000061717072807390708F076CF80916302EC
:1007B0000E9484021092D8021092D702109268020E
:1007C000DF91CF911F910F91FF90EF90DF90CF902D
:1007D00008959D9191938F5F75CF85EEB0CF8091F5
:1007E000640290916502A0916602B0916702892B24
:1007F0008A2B8B2B09F4A9CF0E9439010091640246
:100800001091650220916602309167026C197D0992
:100810008E099F09061717072807390708F095CF93
:10082000C5CF90E080E008950F931F93CF938C0184
:10083000C62F0E942A036C2F6460C8010E942A03FD
:100840006C2F6B7FC8010E942A0383EC90E0019714
:10085000F1F7CF911F910F9108950F931F93CF93AD
:10086000DF938C01D62FC42F607F642B0E94140469
:1008700080E1D89FB00111246C2BC801DF91CF918A
:100880001F910F910C941404CF93DF93CDB7DEB773
:1008900028970FB6F894DEBF0FBECDBF98E0E2E117
:1008A000F1E0DE01119601900D929A95E1F7909199
:1008B0001203981708F48FEF90E0880F991F21E03A
:1008C00030E02C0F3D1F820F931FFC016081606898
:1008D00040E08AE093E028960FB6F894DEBF0FBEA2
:1008E000CDBFDF91CF910C942D0441E00E942D04E7
:1008F00081E090E00895CF93DF93EC0188819981A6
:10090000009711F00E94D60B198218821D821C825A
:100910001B821A82DF91CF910895FB010190002084
:10092000E9F73197AF01461B570BDC01ED91FC91C4
:100930000280F381E02D09940F931F93CF93DF93EF
:10094000EC0188819981009759F02A813B81261713
:10095000370730F081E0DF91CF911F910F9108951B
:100960008B016F5F7F4F0E945F0C009759F0998356
:1009700088831B830A832C813D81232B59F7FC013B
:100980001082E8CF80E0E7CF85ED8093BC008091B6
:10099000640290916502A0916602B0916702079689
:1009A000A11DB11D23E0B695A795979587952A952A
:1009B000D1F72091BC0024FD03C01092620208957B
:1009C00040916402509165026091660270916702E5
:1009D000452B462B472B69F30097A105B10541F044
:1009E00025E32A95F1F700000197A109B109E1CFAC
:1009F000809163020C9484021F920F920FB60F92A3
:100A000011242F933F938F939F93AF93BF93809124
:100A1000CB029091CC02A091CD02B091CE02309148
:100A2000CA0223E0230F2D3758F50196A11DB11DF1
:100A30002093CA028093CB029093CC02A093CD0264
:100A4000B093CE028091CF029091D002A091D102BA
:100A5000B091D2020196A11DB11D8093CF02909357
:100A6000D002A093D102B093D202BF91AF919F91D7
:100A70008F913F912F910F900FBE0F901F9018955F
:100A800026E8230F0296A11DB11DD2CF1F920F920F
:100A90000FB60F9211242F933F934F935F936F9351
:100AA0007F938F939F93AF93BF93EF93FF93E091C7
:100AB000DD02F091DE02309749F0A685B785858585
:100AC000968D91FF14C09C918923A1F4FF91EF9121
:100AD000BF91AF919F918F917F916F915F914F9156
:100AE0003F912F910F900FBE0F901F9018959C91E2
:100AF000892361F7A389B4899C918589809589238D
:100B00008C93868997890197F1F7608D718DA68501
:100B1000B785558538E020E0CB010197F1F7822FAA
:100B200090E095958795282F4C91452309F02068F2
:100B3000315091F7868D81FD20958091DC0290E007
:100B400001968F7399273091DB02381799F0A091A5
:100B5000DC02B0E0A657BD4F2C938093DC02828D5F
:100B6000938D0197F1F7A389B4898C919589892B8D
:100B70008C93ACCF868D8160868FF1CF1F920F92C0
:100B80000FB60F9211242F933F934F935F936F9360
:100B90007F938F939F93AF93BF93EF93FF93809136
:100BA000B900887F803609F44AC0F0F5883209F42C
:100BB000A7C018F5803109F49BC0B8F4882309F464
:100BC000F9C0883009F494C0FF91EF91BF91AF91C3
:100BD0009F918F917F916F915F914F913F912F9155
:100BE0000F900FBE0F901F901895883109F488C0A0
:100BF000803251F78093600214C0803409F49DC0A4
:100C000040F48033B9F38833F9F68093600285ECC1
:100C1000B0C0803509F485C0883509F496C08834A1
:100C200099F60E94C404D0CF883909F48CC038F5F5
:100C3000883729F050F4883611F0803729F683E0A0
:100C40008093620210923B0257C0883809F47BC03F
:100C5000803919F0803809F0B7CF80913B0280329B
:100C600008F071C0E0913B0281E08E0F80933B025F
:100C70008091BB00F0E0E55EFD4F80833DC0803B8E
:100C800039F0E0F4803A09F479C0883A09F09CCF51
:100C900084E08093620210921A0210921902E0918D
:100CA000D502F091D60209958091190281110FC0E9
:100CB00081E0809319021092F90109C0803C09F487
:100CC000A6CF883C09F4A3CF883B09F07DCFE09103
:100CD0001A0281E08E0F80931A02F0E0E750FE4F77
:100CE00080818093BB0090911A028091190229C0E3
:100CF00080913D028093BB0085EC8093BC0064CF63
:100D000090915F0280915E02981758F5E0915F0222
:100D100081E08E0F80935F02F0E0E25CFD4F808106
:100D2000E9CFE0915F0281E08E0F80935F028091B6
:100D3000BB00F0E0E25CFD4F808390915F02809108
:100D40005E029817C8F285E8D8CFE0915F0281E093
:100D50008E0F80935F028091BB00F0E0E25CFD4F5C
:100D600080838091610281115CCF81E080933C029D
:100D700084EA8093BC001092620226CF85EC8093B7
:100D8000BC001092620280913B02803230F4E0910C
:100D90003B02F0E0E55EFD4F108260913B0270E0A7
:100DA000E091D302F091D4028BE192E00995109288
:100DB0003B020ACF1092600234CF1092E2021092EE
:100DC000E10288EE93E0A0E0B0E08093E30290932C
:100DD000E402A093E502B093E6022EE131E0309305
:100DE000E0022093DF0210920D0310920C0322E424
:100DF00031E030930B0320930A0327E220930E0384
:100E000020E12093130322E0209314031092150392
:100E10001092EE021092ED028093EF029093F00296
:100E2000A093F102B093F20280E391E09093EC0280
:100E30008093EB02109202031092010310920403BC
:100E400010920303109206031092050310920803F8
:100E500010920703609109036E7F6D7F6093090311
:100E60006695617081E0682783E00E94BC0061E0C4
:100E700083E00E940801E1EBF0E0E491E093FB02E3
:100E8000EDE9F0E0E491F0E0EE0FFF1FE057FF4FD7
:100E9000859194919093FD028093FC0260E082E042
:100EA0000E9408018091090381FD04C061E082E095
:100EB0000E94BC0082E08093F702E0EBF0E0E49156
:100EC000E093F802ECE9F0E0E491F0E0EE0FFF1FB0
:100ED000EA57FF4F859194919093FA028093F9021B
:100EE0000895CF93DF93CDB7DEB7A7970FB6F894E9
:100EF000DEBF0FBECDBF789484B5826084BD84B55B
:100F0000816084BD85B5826085BD85B5816085BD04
:100F100080916E00816080936E00109281008091BC
:100F20008100826080938100809181008160809344
:100F30008100809180008160809380008091B10069
:100F400084608093B1008091B00081608093B00094
:100F500080917A00846080937A0080917A00826028
:100F600080937A0080917A00816080937A008091EA
:100F70007A00806880937A001092C10061E088E076
:100F80000E9408011092DA021092D9021092D8023F
:100F90001092D7020E9466028DE890E09093D602EC
:100FA0008093D5028EE890E09093D4028093D30290
:100FB00010920F0380911403823018F098E0909300
:100FC0000F038093120362E370E080E090E00E94E0
:100FD0005E01609115038AE093E00E942A0368EEA7
:100FE00073E080E090E00E945E0160E38AE093E0BD
:100FF0000E9414040BE416E4C8010197F1F760E3C2
:101000008AE093E00E941404C8010197F1F760E3BD
:101010008AE093E00E94140483E592E00197F1F7DF
:1010200060E28AE093E00E94140460910F03606222
:1010300040E08AE093E00E942D0484E08093100356
:1010400040E06CE08AE093E00E942D0440E061E023
:101050008AE093E00E942D040BE31FE1C801019791
:10106000F1F782E08093110340E066E08AE093E0CC
:101070000E942D0440E062E08AE093E00E942D048B
:10108000C8010197F1F788E08093150360E08AE0DA
:1010900093E00E942A0380E00E9444046AE471E025
:1010A0008AE093E00E948D0481E00E9444046CE594
:1010B00071E08AE093E00E948D0460ED77E080E0CB
:1010C00090E00E945E0140E061E08AE093E00E94CF
:1010D0002D04C8010197F1F7109206031092050341
:1010E0001092040310920303109202031092010362
:1010F0008DE991E090930803809307039091F702A4
:10110000963108F047C02DEB30E030930203209376
:1011100001032BE931E030930403209303032CE215
:1011200031E030930603209305032091680084E0AA
:10113000983048F031E09E3008F430E081E001C0A2
:10114000880F3A95EAF7822B809368002DE630E00D
:10115000983050F02BE630E09E3030F02CE630E056
:10116000963110F030E020E03093FF022093FE0231
:10117000292F30E0983008F0CAC081E001C0880F04
:101180009A95EAF7809300038091070390910803F2
:101190000197F1F78091050390910603892B49F19E
:1011A000E091DD02F091DE0282E0EB3EF80709F10A
:1011B000309739F0A389B4899C91858980958923DA
:1011C0008C93809109038E7F809309031092DC0237
:1011D0001092DB028BEE92E09093DE028093DD02B0
:1011E000E091FE02F091FF02808190910003892B33
:1011F000808368EB7BE080E090E00E945E016CE61B
:1012000071E08BEE92E00E948D0466E771E08BEE58
:1012100092E00E948D0464E670E080E090E00E941D
:101220005E0169E771E08BEE92E00E948D0466E753
:1012300071E08BEE92E00E948D0468EE73E080E036
:1012400090E00E945E018AE0882E912CA12CB12CA6
:1012500090E0692E91E0792E20E0C22E20E0D22E7F
:1012600090E490937C0080917A00806480937A006F
:1012700080917A0086FDFCCF809178000091790002
:10128000102F082F80E00E94440465E871E08AE096
:1012900093E00E948D041801012E000C44085508AB
:1012A00017FF42C041E06DE28AE093E00E942D0406
:1012B00022273327A901221933094409550919A204
:1012C0008E010F5D1F4FCA01B901A50194010E9453
:1012D000FE0A605DF80162938F0121153105410519
:1012E000510589F7309729F0BF018AE093E00E9409
:1012F0008D0481E00E94440461ED71E08AE093E096
:101300000E948D0460E088E00E94BC00DDC09E3039
:1013100040F42850310981E001C0880F2A95EAF78E
:1013200031CF2E503109F7CFA201910119A2CE0180
:1013300081967C01CA01B901A50194010E94FE0AAF
:10134000605DF70162937F0121153105410551056B
:1013500089F7309729F0BF018AE093E00E948D045D
:101360000536110534F281E00E94440461E971E020
:101370008AE093E00E948D0461E088E00E94BC0056
:101380001A8219821C821B821E821D82F301019027
:101390000020E9F78F0101501140B801CE010196FC
:1013A0000E949C0481119DC0CE0101960E947B0485
:1013B0001BA21AA21DA21CA21FA21EA269E070E01D
:1013C000CE0182960E949C04811194C0CE01829627
:1013D0000E947B04E980FA80E114F10409F495C0CD
:1013E0000D811E8101151105B9F08EA19FA1080F75
:1013F000191FB801CE0182960E949C04882309F42B
:1014000084C02AA13BA18EA19FA1B701820F931F87
:101410000E94250D1FA30EA30EA11FA10F5F1F4F3A
:10142000B801CE0182960E949C04811173C0CE0146
:1014300082960E947B044EA15FA16AA17BA18BEEE4
:1014400092E00E948F0066E771E08BEE92E00E94CE
:101450008D048AA19BA1009711F00E94D60B89816F
:101460009A81009711F00E94D60B64E670E080E04C
:1014700090E00E945E016AEA71E08BEE92E00E94C9
:101480008D0464E670E080E090E00E945E016AE115
:101490008BEE92E00E94A90164E670E080E090E0AB
:1014A0000E945E0166E771E08BEE92E00E948D047F
:1014B00068EE73E080E090E00E945E0168E873E10E
:1014C00080E090E00E945E0164EF71E080E090E0D7
:1014D0000E945E01C114D10409F4C2CE0E94000032
:1014E000BFCE1E830D8360E071E089819A810E94E6
:1014F000250D5ECF89E090E09FA38EA360EA71E0A6
:101500008AA19BA10E94250D65CFCE0182960E94E3
:101510007B0482CF2AA13BA18EA19FA168EA71E042
:10152000820F931F0E94250D1FA30EA384CF80E37B
:1015300091E09093EC028093EB028091DD02909118
:10154000DE028B5E924071F4E091FE02F091FF02A8
:101550009081809100038095892380831092DE0220
:101560001092DD0208952F923F924F925F926F92F8
:101570007F928F929F92AF92BF92CF92DF92EF9223
:10158000FF920F931F93CF93DF93CDB7DEB7CA1BA4
:10159000DB0B0FB6F894DEBF0FBECDBF09942A88CF
:1015A000398848885F846E847D848C849B84AA8477
:1015B000B984C884DF80EE80FD800C811B81AA8104
:1015C000B981CE0FD11D0FB6F894DEBF0FBECDBFCF
:1015D000ED01089597FB072E16F4009407D077FDD0
:1015E00009D00E94200B07FC05D03EF49095819510
:1015F0009F4F0895709561957F4F0895A1E21A2E2F
:10160000AA1BBB1BFD010DC0AA1FBB1FEE1FFF1FA6
:10161000A217B307E407F50720F0A21BB30BE40BF6
:10162000F50B661F771F881F991F1A9469F760953D
:101630007095809590959B01AC01BD01CF010895F7
:10164000AA1BBB1B51E107C0AA1FBB1FA617B707E8
:1016500010F0A61BB70B881F991F5A95A9F7809504
:101660009095BC01CD010895EE0FFF1F0590F491F8
:10167000E02D09940F931F93CF93DF938230910550
:1016800010F482E090E0E0911803F091190330E04B
:1016900020E0B0E0A0E0309799F42115310509F47D
:1016A0004AC0281B390B24303105D8F58A819B812B
:1016B0006115710589F1FB0193838283FE0111C0DD
:1016C000408151810281138148175907E0F0481782
:1016D000590799F4109761F012960C93129713968C
:1016E0001C933296CF01DF91CF911F910F910895F6
:1016F0000093180310931903F4CF2115310551F00D
:101700004217530738F0A901DB019A01BD01DF013F
:10171000F801C1CFEF01F9CF90931903809318031B
:10172000CDCFFE01E20FF31F819391932250310937
:1017300039832883D7CF2091160330911703232BA9
:1017400041F420910E0130910F0130931703209343
:10175000160320910C0130910D012115310541F442
:101760002DB73EB74091100150911101241B350B4C
:10177000E0911603F0911703E217F307A0F42E1B74
:101780003F0B2817390778F0AC014E5F5F4F2417E5
:10179000350748F04E0F5F1F509317034093160311
:1017A000819391939FCFF0E0E0E09CCFCF93DF93C4
:1017B0000097E9F0FC01329713821282A09118037E
:1017C000B0911903ED0130E020E01097A1F42081E1
:1017D0003181820F931F2091160330911703281730
:1017E000390709F061C0F0931703E0931603DF9106
:1017F000CF910895EA01CE17DF07E8F54A815B81B2
:101800009E0141155105B1F7E901FB83EA83499136
:101810005991C40FD51FEC17FD0761F480819181A8
:101820000296840F951FE9019983888382819381B1
:101830009B838A83F0E0E0E012968D919C91139750
:101840000097B9F52D913C911197CD010296820F29
:10185000931F20911603309117032817390739F683
:10186000309751F51092190310921803B093170393
:10187000A0931603BCCFD383C28340815181840FD0
:10188000951FC817D90761F44E5F5F4F8881998112
:10189000480F591F518340838A819B8193838283A0
:1018A0002115310509F0B0CFF0931903E093180327
:1018B0009ECFFD01DC01C0CF13821282D7CFB0E0F2
:1018C000A0E0E5E6FCE00C94B50A8C01009751F429
:1018D000CB010E943A0B8C01C801CDB7DEB7E0E125
:1018E0000C94D10AFC01E60FF71F9C01225031092C
:1018F000E217F30708F49DC0D901CD91DC9111974F
:10190000C617D70798F0C530D10530F3CE0104973C
:101910008617970708F3C61BD70B2297C193D1935D
:101920006D937C93CF010E94D60BD6CF5B01AC1A8E
:10193000BD0A4C018C0E9D1EA0911803B091190395
:10194000512C412CF12CE12C109731F5809116038C
:10195000909117038815990509F05CC04616570643
:1019600008F058C080910C0190910D01009741F44E
:101970008DB79EB74091100150911101841B950BBA
:10198000E817F90708F055C0F0931703E093160322
:10199000F90171836083A0CF8D919C91119712966C
:1019A0006C90129713967C901397A815B90559F56A
:1019B0006C0142E0C40ED11CCA14DB0420F1AC015E
:1019C0004A195B09DA011296159780F062827382D8
:1019D00051834083D9016D937C93E114F10471F03C
:1019E000D7011396FC93EE93129776CF22968C0F25
:1019F0009D1FF90191838083F301EFCFF0931903C9
:101A0000E093180369CF4816590608F42C017D01AC
:101A1000D3019ACFCB010E943A0B7C01009749F089
:101A2000AE01B8010E941C0DC8010E94D60B8701AF
:101A300053CF10E000E050CFFB01DC0102C0019069
:101A40000D9241505040D8F70895FB01DC01019000
:101A50000D920020E1F7089510E0C2E6D0E004C046
:101A6000FE010E94340B2196C336D107C9F7F894C2
:101A7000FFCF2B3132333435363738393000000060
:101A80001A03800000004000140054000000000011
:101A9000FB02CE021104A801C702B402A502000095
:101AA0000000A9018F001104A80105021D02900188
:101AB0000000000075048F0011043E024865617249
:101AC0007462656174204D6F6E69746F7200496E47
:101AD000697469616C697A696E672E2E2E004154B3
:101AE0002B434D47463D31000D0A0041542B434DD9
:101AF00047443D312C3400486561727462656174FD
:101B00003A2000416C6572743A2048696768204841
:101B1000520041542B434D47533D220048656172AA
:101B200074207261746520616C6572742120485262
:101B30002069732061626F766520313030206270D9
:0A1B40006D2E004E6F726D616C0097
:107E0000112484B714BE81FFF0D085E080938100F7
:107E100082E08093C00088E18093C10086E0809377
:107E2000C20080E18093C4008EE0C9D0259A86E02C
:107E300020E33CEF91E0309385002093840096BBD3
:107E4000B09BFECF1D9AA8958150A9F7CC24DD24C4
:107E500088248394B5E0AB2EA1E19A2EF3E0BF2EE7
:107E6000A2D0813461F49FD0082FAFD0023811F036
:107E7000013811F484E001C083E08DD089C08234E0
:107E800011F484E103C0853419F485E0A6D080C0E4
:107E9000853579F488D0E82EFF2485D0082F10E0AE
:107EA000102F00270E291F29000F111F8ED06801E7
:107EB0006FC0863521F484E090D080E0DECF843638
:107EC00009F040C070D06FD0082F6DD080E0C81688
:107ED00080E7D80618F4F601B7BEE895C0E0D1E017
:107EE00062D089930C17E1F7F0E0CF16F0E7DF06D8
:107EF00018F0F601B7BEE89568D007B600FCFDCFD4
:107F0000A601A0E0B1E02C9130E011968C91119780
:107F100090E0982F8827822B932B1296FA010C0160
:107F200087BEE89511244E5F5F4FF1E0A038BF0790
:107F300051F7F601A7BEE89507B600FCFDCF97BE46
:107F4000E89526C08437B1F42ED02DD0F82E2BD052
:107F50003CD0F601EF2C8F010F5F1F4F84911BD097
:107F6000EA94F801C1F70894C11CD11CFA94CF0C13
:107F7000D11C0EC0853739F428D08EE10CD085E9AC
:107F80000AD08FE07ACF813511F488E018D01DD067
:107F900080E101D065CF982F8091C00085FFFCCF94
:107FA0009093C60008958091C00087FFFCCF809118
:107FB000C00084FD01C0A8958091C6000895E0E648
:107FC000F0E098E1908380830895EDDF803219F02E
:107FD00088E0F5DFFFCF84E1DECF1F93182FE3DFCA
:107FE0001150E9F7F2DF1F91089580E0E8DFEE27F6
:047FF000FF270994CA
:027FFE00040479
:00000001FF
